:10000000DCC0000002C1000000C10000FEC0000012
:10001000FCC00000FAC00000F8C00000F6C00000FC
:10002000F4C00000F2C00000F0C00000EEC000000C
:10003000ECC000000C94A012E8C00000E6C0000074
:100040000C945E21E2C000000C94FA230C942C2442
:10005000DCC00000DAC00000D8C00000D6C000003C
:10006000D4C00000D2C00000001D3A2774694E536E
:10007000E8F5D2CF9C81A6BBCDD0F7EAB9A4839E88
:1000800025381F02514C6B76879ABDA0F3EEC9D478
:100090006F7255481B06213C4A57706D3E23041968
:1000A000A2BF9885D6CBECF1130E2934677A5D4058
:1000B000FBE6C1DC8F92B5A8DEC3E4F9AAB7908D48
:1000C000362B0C11425F78659489AEB3E0FDDAC738
:1000D0007C61465B0815322F5944637E2D30170A28
:1000E000B1AC8B96C5D8FFE2263B1C01524F687518
:1000F000CED3F4E9BAA7809DEBF6D1CC9F82A5B808
:10010000031E3924776A4D50A1BC9B86D5C8EFF2F7
:100110004954736E3D20071A6C71564B1805223FE7
:100120008499BEA3F0EDCAD735280F12415C7B66D7
:10013000DDC0E7FAA9B4938EF8E5C2DF8C91B6ABC7
:10014000100D2A3764795E43B2AF8895C6DBFCE1B7
:100150005A47607D2E3314097F6245580B16312CA7
:10016000978AADB0E3FED9C4000000080002010088
:100170000003040700000000000000000102040862
:100180001020408001020408102001020408102001
:10019000040404040404040402020202020203032D
:1001A0000303030300000000250028002B000000CB
:1001B0000000240027002A00512411241FBECFEF85
:1001C000D8E0DEBFCDBF11E3A0E0B1E0EAEAFCE495
:1001D00002C005900D92AA3BB107D9F723E3AAEB21
:1001E000B1E301C01D92A93EB207E1F710E0CDEDE9
:1001F000D0E004C02197FE010E94E124CC3DD1074C
:10020000C9F70E94BC1E0C945326FACE611102C09D
:100210000C9467226130E1F362E0FACF662319F0B3
:1002200061E00C94A32260E0FCCFCF92DF92EF92CA
:10023000FF926B017C019F7720E030E040E859E5B8
:100240000E94BD1F87FF2BC020E030E040E05FE34D
:10025000C701B6010E94F72087FD0EC020E030E004
:1002600040E05FE3C701B6010E94461FFF90EF9098
:10027000DF90CF900C942F2020E030E040E05FEB47
:10028000C701B6010E94F720181684F420E030E080
:10029000A901C701B6010E94FB206B017C01C701C7
:1002A000B601FF90EF90DF90CF90089520E030E00E
:1002B00040E05FE3C701B6010E94451FFF90EF9049
:1002C000DF90CF900C94AA1F2F923F924F925F9293
:1002D0006F927F928F929F92AF92BF92CF92DF9256
:1002E000EF92FF920F931F93CF93DF93CDB7DEB7BB
:1002F00060970FB6F894DEBF0FBECDBF8091CC33B0
:100300009091CD330196E091C233F091C333883B95
:100310002BE0920714F090E080E09C01220F331F45
:10032000220F331FE20FF31F4080518062807380E1
:100330004092D2335092D3336092D4337092D533FB
:100340009093CD338093CC3380917433811110928C
:1003500074332090953330909633F10180819181F0
:10036000A281B3810197A105B10511F181E090E06F
:10037000A0E0B0E080839183A283B38315821682CC
:1003800017821086118612861386148615861686A5
:100390001786108A118A128A138A148A80E090E0E4
:1003A000A0E8BFE3858B968BA78BB08F81E0848319
:1003B000F10185889688A788B08C25813681478190
:1003C000508581859285A385B48589839A83AB8383
:1003D000BC8385859685A785B0898D839E83AF83F1
:1003E000B88781899289A389B48989879A87AB87DD
:1003F000BC87C301B2010E94461F6B017C01C5018D
:10040000B4010E94C11F61507109660F771F660F0A
:10041000771F01E010E00C0F1D1F060F171FF801DA
:100420002081318142815381C701B6010E94461F5C
:100430006D877E878F87988BF80140825182628218
:10044000738220E030E040E450E4C501B4010E9432
:10045000BD1F882309F4A3C120E030E040E85FE33A
:10046000C501B4010E94461FF101C582D682E78210
:10047000F08609811A812B813C81018712872387AD
:1004800034870D811E812F81388505871687278740
:10049000308B09851A852B853C85018B128B238B2C
:1004A000348B658B768B878B908F20E030E040E833
:1004B0005EE36D857E858F8598890E94FB206B01A8
:1004C0007C01C092DE33D092DF33E092E033F092D1
:1004D000E13380907E3090907F30A0908030B0905B
:1004E000813011E0A50194010E94F72087FD10E002
:1004F000A5019401C701B6010E94F72087FD04C041
:1005000081E09091CE33911180E08093E233882393
:10051000A1F09091D133913081F04091863050918B
:10052000873060918830709189304093BC3350930C
:10053000BD336093BE337093BF338093D13320912A
:100540008230309183304091843050918530609179
:10055000BC337091BD338091BE339091BF330E9404
:10056000451F6093DA337093DB338093DC339093D1
:10057000DD336093BC337093BD338093BE3390936F
:10058000BF3320919230309193304091943050910C
:1005900095300E94F72087FD24C160918A307091C8
:1005A0008B3080918C3090918D303FDE6B017C01DF
:1005B00020E030E040E853E40E94BD1F6FEF87FF6A
:1005C0000EC020E030E0A901C701B6010E94F7206B
:1005D00060E087FD04C0C701B6010E94C61F8DE020
:1005E0001DDE80917E3090917F30A0918030B0915F
:1005F00081308093D6339093D733A093D833B09380
:10060000D9331093CE3381E090E00E9444124091A0
:10061000FC315091FD316091FE317091FF3190E0DD
:1006200080E00E94401280900C3290900D32A09099
:100630000E32B0900F3220E030E040E85FEBC501B1
:10064000B4010E94BD1F882331F1C090FC31D090CD
:10065000FD31E090FE31F090FF31A7019601C50118
:10066000B4010E94451F4B015C0120E030E040E0F6
:1006700054E3C701B6010E94FB209B01AC01C501F8
:10068000B4010E94F720181634F08BE990E39093A0
:10069000E7318093E63180911032882331F08BE985
:1006A00090E39093E7318093E631C0900032D09090
:1006B0000132E0900232F0900332FFEFCF1ADF0AEE
:1006C000EF0AFF0AC0920032D0920132E092023269
:1006D000F0920332C114D104E104F10499F4809141
:1006E000043290910532A0910632B0910732019602
:1006F000A11DB11D8093043290930532A093063260
:10070000B09307328090083290900932A0900A325C
:10071000B0900B32609104327091053280910632B4
:10072000909107320E94F21FA50194010E94FB20C4
:1007300020E030E040E85FE40E94FB202B013C0118
:10074000C701B6010E94F21FA50194010E94FB207F
:100750009B01AC01C301B2010E94461F6093FC31B2
:100760007093FD318093FE319093FF3160960FB608
:10077000F894DEBF0FBECDBFDF91CF911F910F91D7
:10078000FF90EF90DF90CF90BF90AF909F908F90B1
:100790007F906F905F904F903F902F9008952985A4
:1007A0003A854B855C856D817E818F8198850E941D
:1007B000461F9B01AC012D833E834F83588769817F
:1007C0007A818B819C810E94461F69837A838B8307
:1007D0009C8360E070E080E89FE3C12CD12C76011F
:1007E00043CE60918E3070918F3080919030909197
:1007F0009130DBCECF93E6EEF1E38BE2DF011D9289
:100800008A95E9F780E090E0A0E8BFEB80930C3296
:1008100090930D32A0930E32B0930F328AE097ED91
:10082000A3E2BCE38093083290930932A0930A328A
:10083000B0930B3281E194EBA2EABCE28093EA31FF
:100840009093EB31A093EC31B093ED3189E095E3D7
:10085000A5E7BFE68093EE319093EF31A093F0319E
:10086000B093F13183EF98E2A2EFB7E98093F231D0
:100870009093F331A093F431B093F53182EA90ED87
:10088000A9E3B8E28093F6319093F731A093F83161
:10089000B093F9318AED91E39093E9318093E83197
:1008A0008EEC91E39093DB318093DA318FEA90E321
:1008B0009093CF318093CE319093D1318093D031CA
:1008C0009093D3318093D2319093D5318093D431AA
:1008D0009093D7318093D6319093D9318093D8318A
:1008E0008AEF91E39093DF318093DE318AEE91E3DA
:1008F0009093DD318093DC318CEF91E39093E13183
:100900008093E031E2EDF3E381E1DF011D928A950E
:10091000E9F7E4E7F3E38BE5DF011D928A95E9F758
:10092000E4ECF1E38AE0DF011D928A95E9F78AEBB6
:1009300091E39093FB318093FA3180E190E09093C2
:10094000BB318093BA318EE590E39093BD318093B3
:10095000BC318EE390E39093BF318093BE318AEF38
:100960009FE29093C1318093C03186EE9FE29093D5
:10097000C3318093C23186E091E09093C33380937A
:10098000C2338FEF9FEF9093CD338093CC3310928F
:100990006E33C1E0C093CF3381E090E0A0E0B0E0DF
:1009A00080936F3390937033A0937133B09372330D
:1009B0008093973390939833A0939933B0939A335D
:1009C0002BE933E33093963320939533C0937333FD
:1009D000C093D0338093B5339093B633A093B7339D
:1009E000B093B83361E08DE011DCC093B933C093AC
:1009F000D133809196308093CE3380918630909120
:100A00008730A0918830B09189308093BC33909327
:100A1000BD33A093BE33B093BF33E0919533F091D3
:100A2000963380819181A281B3810197A105B1059F
:100A3000C1F41582168217821086118612861386DB
:100A40001486158616861786108A118A128A138ACA
:100A5000148A80E090E0A0E8BFE3858B968BA78B9B
:100A6000B08FCF91089580916E33811132C081E0B3
:100A700080936E3380916F3390917033A091713376
:100A8000B09172330197A105B10519F580917333C7
:100A90008823F9F0E0919533F0919633808191812C
:100AA000A281B3810197A105B10541F482E090E0F4
:100AB000A0E0B0E080839183A283B3838FEF9FEFA8
:100AC000DC018093973390939833A0939933B0933C
:100AD0009A338091B433811103C081E08093B433A1
:100AE0000895EF92FF920F931F93CF93DF93EA0144
:100AF000F901DC011496ED90FC90159712964D913A
:100B00005C9113974E0D5F1D2881398118960D91C8
:100B10001C9119970217130730F00D911C91119732
:100B2000012B09F441C08A01021B130BDC0118964A
:100B30008D919C918E199F09800F911F86179707A1
:100B4000DCF1C901860F971F8417950778F471832C
:100B500060833383228315821482178216828881F0
:100B60009981680F791F7983688316C01183008388
:100B700033832283601B710B7583648390E080E074
:100B80001616170614F49E2D8F2D96838783D70192
:100B9000A60FB71FB983A88380E0DF91CF911F9183
:100BA0000F91FF90EF90089518968D919C91821B64
:100BB000930B861797075CF681E0EFCFCF92DF9219
:100BC000EF92FF92CF93DF936B0184E4869FE00165
:100BD000879FD00D1124CF5EDD4C8AA99BA9009779
:100BE00021F00E94B1251BAA1AAA84E48C9DF00171
:100BF0008D9DF00D1124EF5EFD4C86A997A90097FD
:100C000011F00E94B12584E48C9DF0018D9DF00DC2
:100C10001124EF5EFD4C138A128A168A178A108EF1
:100C2000118E128E138E148E158E168E178E10A2A4
:100C300011A281E090E093A382A315A214A216A2B0
:100C400017A210A611A613A612A615A614A616A6DC
:100C500017A610AA11AA13AA12AA15AA14AA17AAAB
:100C600016AA11AE10AE12AE13AE14AE15AEDF0161
:100C7000DE961D921D921D921C921397EE5BFF4F04
:100C800011821082DF91CF91FF90EF90DF90CF9093
:100C90000895CF93DF93FB01DC016D917C91DB0123
:100CA0001696CD91DC918081918123E0880F991F68
:100CB0002A95E1F7AA81BB81A80FB91F8D919C915C
:100CC000119724853585220F331FEB016A817B81C3
:100CD000EB01C20FD31F0990D881C02D14962D911E
:100CE0003C9161E070E0232B11F062E070E0C69F60
:100CF0009001C79F300DD69F300D1124A085B1857E
:100D00002A9FB0012B9F700D3A9F700D1124A48172
:100D1000B5812A9FF0012B9FF00D3A9FF00D112411
:100D20008E0F9F1FFA019183808373836283DF910B
:100D3000CF9108952F923F924F925F926F927F9240
:100D40008F929F92AF92BF92CF92DF92EF92FF92DB
:100D50000F931F93CF93DF9300D000D000D0CDB777
:100D6000DEB7DC011496ED91FC910190F081E02D4D
:100D7000808591859A838983A281B381BC83AB836B
:100D8000FB0181909190A190B190C12CD12C760162
:100D9000C814D904EA04FB04CCF026960FB6F894E4
:100DA000DEBF0FBECDBFDF91CF911F910F91FF909E
:100DB000EF90DF90CF90BF90AF909F908F907F90FB
:100DC0006F905F904F903F902F9008954480558092
:100DD000668077804085518562857385CF01409616
:100DE0009E838D83A081B1819D0183E0220F331FFB
:100DF0008A95E1F7A981BA8112968D919C91D901CA
:100E0000A80FB91F2D903C9011970484F585E02D13
:100E1000EE0FFF1F8B819C81E80FF91F0190F0817D
:100E2000E02D14968D919C91892B41F581E090E005
:100E3000E89F9001E99F300DF89F300D1124249F09
:100E40008001259F100D349F100D1124249DC00199
:100E5000259D900D349D900D1124A8016D817E81FA
:100E6000820D931D0E943A26ED81FE81E00FF11F55
:100E70009FEFC91AD90AE90AF90A8ACF82E090E0FD
:100E8000D7CFCF93DF93DB01A956BF4C2C91222300
:100E900069F024E4269FF001279FF00D1124EF5EF6
:100EA000FD4CEF0119922A95E9F71C9224E4269F44
:100EB000F001279FF00D1124EF5EFD4C1482158286
:100EC000168217821186108613861286118A108A5E
:100ED00017861686DF91CF9171CE2F923F924F9257
:100EE0005F926F927F928F929F92AF92BF92CF92BA
:100EF000DF92EF92FF920F931F93CF93DF93CDB7C3
:100F0000DEB728970FB6F894DEBF0FBECDBF24E43E
:100F1000269FF001279FF00D1124EF5EFD4C048108
:100F2000158126813781012B022B032B09F4B7C0D1
:100F30002A016B017C0110E000E0812C912C54010E
:100F40003F019F01285F3F4F3C832B83CF010496D5
:100F50009E838D83AB81BC818D919C91ED81FE81BF
:100F6000408151816281738184169506A606B70679
:100F7000E4F10E94B125D3011A968D919C91892BA1
:100F800009F07EC084E48C9DD0018D9DB00D1124AC
:100F9000AF5EBD4CBC83AB8350968D919C910E94FB
:100FA000B125EB81FC81868597850E94B125C7011B
:100FB000B60104DEC701B60128960FB6F894DEBF6D
:100FC0000FBECDBFDF91CF911F910F91FF90EF909A
:100FD000DF90CF90BF90AF909F908F907F906F9059
:100FE0005F904F903F902F904CCFFC01E00FF11F8E
:100FF00092819983A381AA839F83A887312C212C76
:101000002414350464F089819A810E94B125EFEFA0
:101010008E1A9E0AAE0ABE0A0C5F1F4F9BCFAF818D
:10102000B885ED91FD91B887AF83309759F08481F1
:1010300095810E94B125EF81F88532978081918159
:101040000E94B125BFEF2B1A3B0ADACF800F911F08
:10105000FC01848195810E94B1252B813C812F5F09
:101060003F4F3C832B83025F1F4FF50180819181AD
:101070002B813C81241535054CF30E94B12582CF8C
:1010800010E000E01C821B8224E42C9DC0012D9DF9
:10109000900D1124DC01A55EBD4C5D01E6CF2896C4
:1010A0000FB6F894DEBF0FBECDBFDF91CF911F9179
:1010B0000F91FF90EF90DF90CF90BF90AF909F90F7
:1010C0008F907F906F905F904F903F902F900895FA
:1010D00024E4269FF001279FF00D1124EF5EFD4CC4
:1010E000828993890497029758F485E090E0938B66
:1010F000828B8FEF9FEFDC01828F938FA48FB58F50
:1011000008952F923F924F925F926F927F928F92AB
:101110009F92AF92BF92CF92DF92EF92FF920F9386
:101120001F93CF93DF93CDB7DEB7AA970FB6F8948E
:10113000DEBF0FBECDBF9AA389A37E8B6D8B1A0134
:10114000098B1A8B2B8B3C8B84E429893A89829FEB
:101150006001839FD00C112486010F5E1D4C89898C
:101160009A89AB89BC89F80180839183A283B38378
:10117000AB01BC01CD01B1DED601AB5EBD4C84E05C
:10118000F10101900D928A95E1F7F4E02F0E311CE8
:1011900064E070E0D80114968D919C910E94FB242C
:1011A000F80191878087892B09F0F5C04D895E8908
:1011B00069897A898B899C8990DE81E0AA960FB62D
:1011C000F894DEBF0FBECDBFDF91CF911F910F917D
:1011D000FF90EF90DF90CF90BF90AF909F908F9057
:1011E0007F906F905F904F903F902F900895A9A5AA
:1011F000BAA58D919C91E98DFA8DE80FF91FF88FB2
:10120000EF8BD1018D919C91880F991FA9A1BAA153
:10121000ED91FC91E80FF91F80819181EF89F88DA4
:1012200091838083D10114962D913D914D915C91D4
:1012300017972BA33CA34DA35EA362E070E08D89BA
:101240009E890E94FB24EF89F88D93838283892BEA
:1012500009F4ACCFF8E02F0E311C412C512C320197
:101260002BA13CA14DA15EA1421653066406750652
:101270009CF02B8D3C8D4D8D5E8D2F5F3F4F4F4FE2
:101280005F4F2B8F3C8F4D8F5E8F498D5A8D4C5FFA
:101290005F4F5A8F498F90C0610124E0C20ED11C6C
:1012A000D101ED90FC90EE0CFF1CEF89F88D82814E
:1012B0009381E80EF91E68E070E081E090E00E9402
:1012C000FB248C01D7018D939C93892B09F46ECF5D
:1012D00084E0F601D80101900D928A95E1F7B8E01B
:1012E0002B0E311CF80180819181A281B3811816E7
:1012F00019061A061B06DCF464E070E00E94FB2469
:10130000D80115969C938E931497892B09F44ECF90
:10131000D12CC12C812C912C5401F8018081918118
:10132000A281B38188169906AA06BB0634F0FFEFA6
:101330004F1A5F0A6F0A7F0A93CFF801E480F580A5
:10134000EC0CFD1C80E1F101DE01119601900D9283
:101350008A95E1F7F0E12F0E311CA701BE016F5F06
:101360007F4FA9A1BAA114968D919C9192DCF801AE
:1013700086819781D70112962D913C91820F931F00
:1013800097838683BFEF8B1A9B0AAB0ABB0AE4E004
:10139000CE0ED11CC2CF1A8E198E1B8E1C8E1D8EA6
:1013A0001E8E18A30F8FA8014C5F5F4F58A74FA345
:1013B000C80108969AA789A7EFA1F8A58081918115
:1013C000A281B3812B8D3C8D4D8D5E8D2817390701
:1013D0004A075B070CF40BCF6EE070E08D899E89A5
:1013E0000E94FB24AF8DB8A11B969C938E931A97F5
:1013F000B12CA12CD12CC12CF12CE12C24E4E989B5
:10140000FA892E9FC0012F9F900D11249C01255E0B
:101410003D4C388F2F8B88248394912C4D895E8985
:10142000C416D50654F184E4A989BA898A9F80013B
:101430008B9F100D11240F5E1D4CF801158614862C
:10144000C70133E0880F991F3A95E1F70E941525EF
:10145000D80151969C938E935097892B09F4A6CE70
:10146000C701880F991F0E941525F8019787868765
:10147000892B09F49BCE80E0A1CED1014D905D90E7
:101480006D907D901D0177FC91CEEF89F88D0081E4
:1014900011810A0D1B1DD80111969C928E92411448
:1014A00051046104710429F1C2010E941525F8015B
:1014B00095838483892B09F479CEF8015382428283
:1014C000848195819783868391878087138612868E
:1014D00081E090E045284628472811F490E080E01C
:1014E000E80EF91EFFEFCF1ADF0A2EE0A20EB11CA4
:1014F00095CF15961C921E921497DFCF2F923F9294
:101500004F925F926F927F928F929F92AF92BF9213
:10151000CF92DF92EF92FF920F931F93CF93DF93BF
:10152000CDB7DEB76A970FB6F894DEBF0FBECDBF5A
:101530009E8B8D8B49015A0184E4829F7001839FA9
:10154000F00C112497012F5E3D4C6901FB01808155
:101550009181F901958B848BD701A95DBD4CFB016D
:10156000349684E001900D928A95E1F7D701A55D4C
:10157000BD4CFB01389684E001900D928A95E1F70D
:10158000D701A15DBD4CFB013C9684E001900D921A
:101590008A95E1F7D701A15CBD4CFB01709684E010
:1015A00001900D928A95E1F78B010C5E1F4FF901B6
:1015B00086A597A5A0A9B1A918161906DCF5880F6C
:1015C000991F880F991F0E941525F60193AB82ABD6
:1015D000892B09F4D3C0312C212C412C512C320100
:1015E0009601225D3F4F388F2F8BC601C2969A8F8E
:1015F000898FF496FC8BEB8BB301A2012FEF421A7B
:10160000520A620A720AEF89F88D80819181A28163
:10161000B381481759076A077B070CF47BC0F601B2
:1016200084A995A90E941525F60197AB86AB892B55
:1016300009F4A4C0F80180819181A281B38124E4DE
:10164000289DF001299DF00D1124EF5EFD4CAC01A9
:10165000BD014D7F21E030E0452B462B472B11F09B
:1016600030E020E033A322A324E4289DF001299D4B
:10167000F00D1124EF5EFD4C0197A109B10921E0A5
:1016800030E00297A105B10510F030E020E035A36D
:1016900024A3D701A95CBD4CF801349684E00190E5
:1016A0000D928A95E1F784E4889DF001899DF00D03
:1016B0001124EF5EFD4C868D978DA0A1B1A1B7FFDF
:1016C00058C0B095A095909581959F4FAF4FBF4F53
:1016D00082AF93AFA4AFB5AF168E178E10A211A232
:1016E00080E06A960FB6F894DEBF0FBECDBFDF91E3
:1016F000CF911F910F91FF90EF90DF90CF90BF900F
:10170000AF909F908F907F906F905F904F903F90A1
:101710002F900895E98DFA8D808191819C01220D91
:10172000331D3A8B298B80E1F801DE01119601907F
:101730000D928A95E1F7005F1F4F49895A89BE01D2
:101740006F5F7F4FED89FE8984819581A2DAEB89F5
:10175000FC8980819181E989FA8922813381820F14
:10176000931FEB89FC8991838083F4E02F0E311C59
:1017700043CF12AE13AE14AE15AEB2CFC501B40155
:101780001DDA81E0AECFCF92DF92EF92FF92CF933E
:10179000DF931092993224E4269FF001279FF00DE9
:1017A0001124EF5EFD4C15A614A630E020E0D12CEC
:1017B000C12CDF011A96C1E0D0E0C416D506F4F0C2
:1017C00024E4269FF001279FF00D1124EF5EFD4CCD
:1017D00013A612A611AE10AEDF01DE961D921D9269
:1017E0001D921C92139782E090E0938B828BDF9185
:1017F000CF91FF90EF90DF90CF900895ED91FC9105
:101800001197E20FF31FE280F3801E141F0454F4BB
:10181000E480F580F782E682F186E0861386128600
:10182000D183C083EFEFCE1ADE0A225F3F4FC5CFD0
:1018300024E4269FF001279FF00D1124EF5EFD4C5C
:10184000138A128A4ACB24E4269FF001279FF00DC9
:101850001124EF5EFD4C8289938981309105C8F097
:101860008530910518F0059769F008958FEF9FEF87
:10187000DC01828F938FA48FB58F85E090E0938BEE
:10188000828B08958FEF9FEFDC01828F938FA48F5F
:10189000B58F089524E4249FD001259FB00D112415
:1018A000AF5EBD4C2EE0AC01249FC001259F900D82
:1018B00011241A96ED91FC91E80FF91F81E08093B5
:1018C00099328285938591878087408551852681CD
:1018D000378181E090E04217530711F090E080E0FB
:1018E0009183808308952F923F924F925F926F92DF
:1018F0007F928F929F92AF92BF92CF92DF92EF92A0
:10190000FF920F931F93CF93DF93CDB7DEB7C055F0
:10191000D1090FB6F894DEBF0FBECDBF9EAF8DAF1D
:101920004BA75CA76DA77EA76801790184E4809F1F
:10193000F001819FF00D1124EF5EFD4C228533856F
:1019400023963FAF2EAF239782899389029761F444
:1019500086A597A5A0A9B1A9892B8A2B8B2BC9F5A0
:1019600084E090E0938B828B84E48C9DF0018D9DCC
:10197000F00D1124EF5EFD4C828993898230910530
:1019800009F037C282AD93ADA4ADB5AD2224239446
:10199000312C181619061A061B060CF42FC2C05B50
:1019A000DF4F0FB6F894DEBF0FBECDBFDF91CF91F2
:1019B0001F910F91FF90EF90DF90CF90BF90AF906D
:1019C0009F908F907F906F905F904F903F902F905F
:1019D0000895848995894DAD5EAD8417950721F6EC
:1019E00006A917A918AE1FAA1BAA1CAA1DAA1EAADF
:1019F0001F01CF018E9627969FAF8EAF2797DF01ED
:101A0000D2962996BFAFAEAF2997F8962B96FFAF27
:101A1000EEAF2B9791012A5D3F4F2D963FAF2EAF32
:101A20002D97A1014E5D5F4F2F965FAF4EAF2F9761
:101A30000A9761969FAF8EAF61972796EEADFFAD87
:101A4000279780819181A281B3812BA93CA94DA9BF
:101A50005EA9281739074A075B0744F081E090E048
:101A6000D101D9969C938E93D8977ECF2996AEAD0F
:101A7000BFAD2997ED91FC912FA938ADE20FF31F6F
:101A8000428153815AAF49AF50815FAF8181219626
:101A90008FAF21972B96AEADBFAD2B978D919C91BB
:101AA000892B21F12D96EEADFFAD2D978080918091
:101AB000A280B3801AAB09AB5FA72196FFAD219737
:101AC000F8AB29AD3AAD36952795369527952596ED
:101AD0003FAF2EAF25971CAE1BAE2596AEADBFAD6A
:101AE0002597EBADFCADEA17FB070CF149AD5AADFC
:101AF0006FAD21967FAD2197C8010E943A2689AD2E
:101B00009AAD8C7F080F191F2BA93CA94DA95EA97E
:101B10002F5F3F4F4F4F5F4F2BAB3CAB4DAB5EAB9F
:101B20004FA958AD4C5F5F4F58AF4FAB86CF2F9644
:101B3000AEADBFAD2F978D919C91892B71F1EFA523
:101B4000F8A94080518062807380A3019201C50191
:101B5000B4010E94BD1F181664F0A9A9BAA92D915D
:101B60003D914D915C91C501B4010E94F72018167A
:101B7000BCF1A3019201C501B4010E94BD1F87FF02
:101B80000CC0E9A9FAA92081318142815381C501A4
:101B9000B4010E94BD1F882319F16196AEADBFAD9F
:101BA00061978D919C91892B09F445C0EFA5F8A907
:101BB0004080518062807380A3019201C501B4010D
:101BC0000E94F72018161CF5A9A9BAA92D913D91DC
:101BD0004D915C91C501B4010E94BD1F18165CF1C6
:101BE00084E48C9DF0018D9DF00D1124EF5EFD4C81
:101BF000868D978DA0A1B1A1892B8A2B8B2B69F1A2
:101C000083E090E0938B828B81E090E02CC0A30175
:101C10009201C501B4010E94BD1F81110CC0E9A948
:101C2000FAA92081318142815381C501B4010E940A
:101C3000BD1F87FDD5CF2BAD3CAD2F5F3F4F3CAFD8
:101C40002BAF49A95AA94C5F5F4F5AAB49AB8FA53F
:101C500098A9049698AB8FA740CF84E090E0938B2F
:101C6000828B86AD97AD93A782A77ECEEBADFCAD00
:101C700080819181F401EE0FFF1FEE0FFF1FE80F2F
:101C8000F91FA081B1818C9181110AC0FFEF8F1AD9
:101C90009F0AAF0ABF0A8DA29EA2AFA2B8A68FC1AB
:101CA0008330A1F30280F381E02D2FA938ADE20F3C
:101CB000F31F808191819AAB89AB892B39F34F5FF8
:101CC0005F4F6F4F7F4F49875A876B877C879E0195
:101CD000235E3F4FAE01475D5F4F64E070E0C80197
:101CE0000E9471058111D0C18D819E81AF81B8851F
:101CF0000496A11DB11D8D839E83AF83B8874D8D42
:101D00005E8DBE016B5D7F4F8F8D98A10E943A263C
:101D10008BA19CA1009761F06D8D7E8DA5E2B0E056
:101D2000AC0FBD1F6A0F7B1F49A15AA10E943A2622
:101D30001CAA1BAA412C512C3201E9A9FAA98081C5
:101D40009181A281B381481659066A067B060CF080
:101D50009DCFE9A9FAA9848195812BA93CA9280FD7
:101D6000391F38AB2FA7D90112966D917C919E0136
:101D7000235E3F4FAE01475D5F4FC8010E94710572
:101D8000811182C1EFA5F8A982819381092E000CEF
:101D9000AA0BBB0B4D815E816F817885840F951FE7
:101DA000A61FB71F8D839E83AF83B8876081718123
:101DB0004D8D5E8D8F8D98A10E943A268BA19CA19E
:101DC000009761F0AFA5B8A96D917C912D8D3E8DE6
:101DD000620F731F49A15AA10E943A26BFEF4B1A06
:101DE0005B0A6B0A7B0AEBA9FCA93496FCABEBAB54
:101DF000A4CF312C212C049709F0D1CD8EE0EDAD8C
:101E0000FEAD8E9F80018F9F100D112423962EAD65
:101E10003FAD2397020F131FD80112964D915C918D
:101E200013974115510509F4BACD16968D919C91E1
:101E30009AA789A780E1FE013196DF011D928A955C
:101E4000E9F7C98ADA8AEB8AFC8A2114310409F499
:101E500058C084E48C9DF0018D9DF00D1124EF5E3F
:101E6000FD4CDF01DE968D909D90AD90BC9082ADD3
:101E700093ADA4ADB5AD88169906AA06BB0609F0C8
:101E800040C0F801848195810084F185E02D34966D
:101E900024E0DE01559601900D922A95E1F72D89F7
:101EA0003E89285F3F4F3E8B2D8BD80118966D9150
:101EB0007C911997260F371F19963C932E931897EC
:101EC00018962D913C911997480F591F241B350BDB
:101ED00037FD06C0820F931F19969C938E93189717
:101EE00084E48C9DF0018D9DF00D1124E15BFD4C8F
:101EF000B1E08B1A9108A108B10880829182A28278
:101F0000B3829E012B5E3F4FAE01475D5F4F64E1A0
:101F100070E0C8010E9471058111B6C08CE090E0AC
:101F2000A0E0B0E08D839E83AF83B8879E01235EDF
:101F30003F4FAE01475D5F4F64E070E0C8010E9413
:101F400071058111A1C080E190E0A0E0B0E08D8337
:101F50009E83AF83B8874D8D5E8DBE01655D7F4FDB
:101F60008F8D98A10E943A268BA19CA1009761F0C9
:101F70006D8D7E8DEBE2F0E0EC0FFD1F6E0F7F1F8D
:101F800049A15AA10E943A261DA21EA21FA218A66C
:101F90002DAD3EAD220F331F38AF2FAB24E42C9D67
:101FA000C0012D9D900D11248F5E9D4CAC014C5FA6
:101FB0005F4F5AAF49AFDC011896BCAFABAF8DA0F5
:101FC0009EA0AFA0B8A449855A856B857C85E9ADF4
:101FD000FAAD80819181A281B38188169906AA0603
:101FE000BB060CF443CE452B462B472B09F4D7CC2C
:101FF0008AE190E0A0E0B0E089839A83AB83BC8360
:102000002DAD3EADC901330FAA0BBB0B8D879E874B
:10201000AF87B88B4D895E89BE016F5F7F4F8F8917
:10202000988D0E943A268B8D9C8D009761F06D896A
:102030007E8941E050E04C0F5D1F640F751F498D94
:102040005A8D0E943A2689A59AA5D80117969C9385
:102050008E93169711961C921E92232809F49FCCFA
:1020600084E48C9DF0018D9DF00D1124E15BFD4C0D
:1020700080819181A281B3810196A11DB11D8083D0
:102080009183A283B3838BCC232809F088CC84E48A
:102090008C9DF0018D9DF00D1124EF5EFD4C81E0D3
:1020A00090E095A784A785E090E0938B828B77CC16
:1020B000CF92DF92EF92FF920F931F9324E4269F1B
:1020C000F001279FF00D1124EF5EFD4C228933892A
:1020D0002115310509F452C06B017C012130310515
:1020E000B1F482A593A59C012F5F3F4F33A722A790
:1020F000092E000CAA0BBB0B028D138D248D358D80
:1021000080179107A207B307C9F5C7013CDB84E438
:102110008C9DF0018D9DF00D1124EF5EFD4C8289A8
:102120009389039759F582A593A59C012F5F3F4F93
:1021300033A722A7092E000CAA0BBB0B468D578D87
:1021400060A171A184179507A607B707BCF086ADFB
:1021500097AD93A782A784E090E0938B828B82ADAA
:1021600093ADA4ADB5AD181619061A061B0634F4C6
:10217000EE5BFF4F81E090E0918380831F910F9190
:10218000FF90EF90DF90CF90089524E4269FF00118
:10219000279FF00D1124EF5EFD4C828993890497EF
:1021A000B1F482A593A5019693A782A7092E000CEE
:1021B000AA0BBB0B46895789608D718D84179507D3
:1021C000A607B70721F485E090E0938B828B0895F2
:1021D0002F923F924F925F926F927F928F929F9237
:1021E000AF92BF92CF92DF92EF92FF920F931F9325
:1021F000CF93DF93CDB7DEB72E970FB6F894DEBF3F
:102200000FBECDBFDC0149835A836B837C832901D8
:1022100084E4849FF001859FF00D1124EF5EFD4C56
:1022200022883388C1010497029708F0D5C011961F
:102230001C921E9213961C921E921297158614865B
:10224000912C812C90E080E08F019F01205F3F4F17
:1022500038872F833F013CE0630E711CBF01625F32
:102260007F4F7A8769873A96FC87EB87EF81F885FD
:1022700020813181F30140815181E985FA85A08077
:10228000B180841595050CF445C011965C934E936E
:1022900013963C932E9312971596BC92AE92149778
:1022A000452BF9F4F5E02F163104D9F41092993248
:1022B000F801828D938DA48DB58DAE014F5F5F4F78
:1022C00064E070E08F3F9F4FAF4FBF4F09F079C080
:1022D00080E290E0D5D469817A818B819C81A201D2
:1022E000A7DA2E960FB6F894DEBF0FBECDBFDF91F2
:1022F000CF911F910F91FF90EF90DF90CF90BF9003
:10230000AF909F908F907F906F905F904F903F9095
:102310002F900895EB85FC8560817181FB01E80DAC
:10232000F91DFE87ED8760817181672B89F5E08457
:10233000F184628173817E836D83668177816A0116
:10234000E3E0CC0CDD1CEA95E1F72C0D3D1D440FBC
:10235000551F4A0D5B1DFA0191838083F301408173
:1023600051814F5F5F4F51834083F901F382E282D5
:10237000ED85FE8573876287E616F70670F46E19A1
:102380007F09F90171836083158214821782168296
:102390000196FEE08F0E911C69CFED85FE85C4800D
:1023A000D5804D815E814C0D5D1D4E195F09F9018F
:1023B000518340836C197D0975836483D782C682FB
:1023C000E7CF8FE190E05CD4F80113A612A681E07C
:1023D00090E0938B828B85CF1586148611961C9284
:1023E0001E9213961C921E9212977BCFEF92FF9231
:1023F0000F931F93CF93DF937C018B01EA011ED5CE
:1024000081111BC08091993090919A300497F9F412
:10241000DF91CF911F910F91FF90EF90089528EDDC
:1024200038EB45E050E060E070E0CB01BDD7AE0195
:10243000B801C701C7D7C80190D780919A3290914F
:102440009B32892BF9F68881882349F3DBCF83E01F
:1024500090E090939A3080939930DACFCF93DF93C6
:102460002091993030919A302430310531F0EB01D0
:10247000A9D7CE01DF91CF9170C7DF91CF91089599
:102480000C94DE1D0C94D31D0C94C11D76C70C94C6
:10249000651D089570E060E090E080E0AAC40895B2
:1024A000AF92BF92CF92DF92EF92FF920F931F9362
:1024B000CF93DF9300D0CDB7DEB75C018B0169010C
:1024C0007A0190E080E0C114D104E104F10469F4E0
:1024D0000F900F90DF91CF911F910F91FF90EF9090
:1024E000DF90CF90BF90AF9008959C2D8D2DC1149B
:1024F000D10421E0E206F10410F09FEF8FEF9E017E
:102500002F5F3F4F492F582FB801C5010E94671E0A
:102510008F3F9807E9F229813A81C21AD30AE1086C
:10252000F108020F131FCFCF40E855E260E070E0E2
:1025300090E080E000C026E081ED92E30C949A23C5
:102540001F920F920FB60F9211242F933F934F9328
:102550005F936F937F938F939F93AF93BF93EF930B
:10256000FF938FE89DEF90938500809384000E94F5
:10257000A01EFF91EF91BF91AF919F918F917F919D
:102580006F915F914F913F912F910F900FBE0F90E0
:102590001F9018958FE89DEF90938500809384009D
:1025A000AFE6B0E08C918E7F8C93E0E8F0E0808124
:1025B0008C7F8083E1E8F0E08081877E808380816A
:1025C0008460808380818C7F80838C9181608C93F8
:1025D000089581E008958F929F92AF92BF92CF921B
:1025E000DF92EF92FF920F931F93CF93DF935C01E3
:1025F0007B018A01C1E0D0E0CE15DF05CCF081E09F
:10260000F5018083B801C7010E94081EF50192837D
:10261000818390E080E0DF91CF911F910F91FF9037
:10262000EF90DF90CF90BF90AF909F908F900895E4
:102630006E018FEFC81AD80AFE01EE0FFF1FE00FE0
:10264000F11F808091808114910469F06EE571E33F
:10265000C4010E944A26892B41F4CC0FDD1FC00F14
:10266000D11F19821882E601C7CF61E671E3C40168
:102670000E944A26892BB9F7EC14FD04A1F36E01E0
:10268000E2E0CE0ED11CCC0FDD1FC00FD11F19828E
:1026900018821B821A82E7CF8CE992E3089580E0CA
:1026A00008950F931F93CF93DF938B01BA01E90134
:1026B000198218829801012E000C440B550BFC0165
:1026C00081819281EDDE019641F01983088380E0DB
:1026D000DF91CF911F910F91089581E0F9CF0F9372
:1026E0001F93CF93DF9300D0CDB7DEB7FB018A01F4
:1026F000B9019E012F5F3F4FAF01FC0181819281A3
:102700000E941C1E019669F089819A81F8019183CB
:10271000808380E00F900F90DF91CF911F910F91F8
:10272000089581E0F7CFFC01808108950895089510
:1027300081E0FB01808380E0089508951092C43207
:102740000895FC01818192810C94001ECF93DF9348
:10275000CDB7DEB72A970FB6F894DEBF0FBECDBF58
:10276000B0E0A0E089839A83AB83BC83CB01770F71
:10277000AA0BBB0B8D839E83AF83B8879E01275F17
:102780003F4FAE014F5F5F4F68E070E08091B33222
:102790009091B43286DF811110C081E029853A859D
:1027A0002830310509F480E02A960FB6F894DEBF90
:1027B0000FBECDBFDF91CF91089581E0F5CF0F938C
:1027C0001F93CF93DF9300D0CDB7DEB78B019E016F
:1027D0002F5F3F4FAC018091B3329091B43261DFF3
:1027E00081110EC081E029813A812017310709F457
:1027F00080E00F900F90DF91CF911F910F9108957E
:1028000081E0F7CFCF93DF93EC011092B7321092B3
:10281000B6321092C3321092C232AC0160E070E066
:10282000CB0106D8AE0161E070E080E090E000D816
:102830008091B3329091B432DF91CF917ECF4F929D
:102840005F926F927F928F929F92AF92BF92CF9240
:10285000DF92EF92FF920F931F93CF93DF9300D0FD
:10286000CDB7DEB78C017C0197FF03C087E0E80E8F
:10287000F11C23E0F594E7942A95E1F7C80168E09C
:1028800070E00E94AC246C010E5F1F4F8091B1324A
:102890009091B23280179107D4F48091AF32909129
:1028A000B032009731F00E94B1251092B2321092EE
:1028B000B132C8010E9415259093B0328093AF3297
:1028C000892B09F482C01093B2320093B13210E028
:1028D00000E047C1412C512C3201B12CA12C9501B3
:1028E00028543D4CAE014F5F5F4F61E070E0809136
:1028F000B3329091B432F3DE811149C0EFEF4E1A3A
:102900005E0A6E0A7E0AF0E94F16FFE55F06F1E007
:102910006F06710444F06091C2327091C3328DEE43
:1029200090E014DFD7CF89819A81A80EB91E8AE082
:10293000A816B10409F043C049E050E070E060E03F
:1029400088EB92E30E94921E6091C2327091C33272
:10295000882391F18091C03290E08617970781F427
:10296000BC018EEE90E0F2DE8091C2329091C332D3
:10297000019699279093C3328093C2320F5F1F4F05
:102980000E151F050CF4A6CFCD2809F07CC090E0F1
:1029900080E00F900F90DF91CF911F910F91FF90EA
:1029A000EF90DF90CF90BF90AF909F908F907F90EF
:1029B0006F905F904F9008958FEE90E0B2CFEAE075
:1029C000AE16B1040CF48BCFDBCF10E000E0D8CF13
:1029D0000A30110531F549E050E070E060E088EB25
:1029E00092E30E94921E6091C2327091C33288239A
:1029F000A9F08091C03290E08617970741F6BC019C
:102A00008EEE90E0A3DE8091C2329091C3320196A7
:102A100099279093C3328093C232B9CF8FEE90E062
:102A20002BC00A3011050CF0B2CF980128543D4C50
:102A3000AE014F5F5F4F61E070E08091B3329091E3
:102A4000B4324DDE8111A3CF89819A81080F191FFD
:102A5000FFEFCF1ADF0AEF0AFF0A80E9C8168FE5F9
:102A6000D80681E0E806F1040CF4B2CF6091C232DE
:102A70007091C3328DEE90E069DE10E000E0C12C71
:102A8000D12C7601D2CFC12CD12C760110E000E000
:102A9000CCCF412C512C3201B12CA12C480193E018
:102AA000880C991C9A95E1F72091AF323091B032A1
:102AB000C501880D991D280F391FAE014F5F5F4F6B
:102AC00061E070E08091B3329091B43208DE811100
:102AD0005ECFEFEF4E1A5E0A6E0A7E0A6091C23236
:102AE0007091C3328DEE90E0F0E94F16FFE55F067E
:102AF000F1E06F0671040CF043C089819A81A80E41
:102B0000B91E8AE0A816B10409F041C049E050E0BE
:102B1000B4018091AF329091B0320E94921E6091C8
:102B2000C2327091C332882349F18091AF329091C3
:102B3000B032880E991EF401808590E086179707C1
:102B400081F4BC018EEE90E001DE8091C232909162
:102B5000C332019699279093C3328093C2320F5F9C
:102B60001F4F0E151F050CF494CFC114D10409F0AA
:102B700081C08091AF329091B0320BCF8FEE90E058
:102B8000E5DD412C512C3201B12CA12C8DCFFAE086
:102B9000AF16B1040CF488CFE4CF8FEE90E0D6DD11
:102BA000F12CE12C812C912C5401970128543D4C9F
:102BB000AE014F5F5F4F61E070E08091B332909162
:102BC000B4328DDD8111E3CE8FEF881A980AA80AFE
:102BD000B80A6091C2327091C3328DEE90E0E0E9A4
:102BE0008E16EFE59E06E1E0AE06B104C4F68981DB
:102BF0009A81E80EF91EFAE0EF16F104A9F549E012
:102C000050E070E060E088EB92E30E94921E6091D9
:102C1000C2327091C332882309F4BFCF8091C03291
:102C200090E08617970709F0A4CFBC018EEE90E0E4
:102C30008DDD83E0000F111F8A95E1F78091AF329F
:102C40009091B032A60168EB72E3800F911F0E9451
:102C50003A268091C2329091C3320196992790937F
:102C6000C3328093C23285CF8AE0E816F1040CF4B7
:102C70009CCF7FCF812C912C5401F12CE12C95CF4E
:102C8000CF92DF92EF92FF920F931F93CF93DF9338
:102C90001F92CDB7DEB76C017B018A01452B39F05D
:102CA000AB0170E060E0C8010E948E1E8983B7010D
:102CB000C6014CDD81110DC00115110551F0B701A0
:102CC000C8017DDD811105C061E070E0CE01019693
:102CD00076DD0F90DF91CF911F910F91FF90EF90D4
:102CE000DF90CF900895CF92DF92EF92FF92CF9333
:102CF000DF93CDB7DEB728970FB6F894DEBF0FBECF
:102D0000CDBF6B01F12CE12CC982DA82EB82FC820F
:102D10002D833E834F835887AE014F5F5F4F68E03E
:102D200070E0AEDF28960FB6F894DEBF0FBECDBFC1
:102D3000DF91CF91FF90EF90DF90CF9008958F9229
:102D40009F92AF92BF92CF92DF92EF92FF920F933A
:102D50001F93CF93DF937C01EB01CA0169016FDD03
:102D60000097B1F42FEF3FEFA90161E070E0C701D8
:102D7000BADFC1E08C2FDF91CF911F910F91FF90AF
:102D8000EF90DF90CF90BF90AF909F908F9008957D
:102D9000FC0181909190A190B190BF01FCE1EF16F0
:102DA000F10479F4A5019401CE010E947E0AC82F96
:102DB000A5019401882369F061E070E0C70193DF09
:102DC000D9CF95018401AB01B601CE010E948108E3
:102DD000EECF70E060E0C701DF91CF911F910F91BE
:102DE000FF90EF90DF90CF90BF90AF909F908F902B
:102DF0007ACF0F931F93CF93DF93EC018B014CDCC1
:102E00009093B4328093B3320097A9F0A801BE0129
:102E1000E2DBEC01892B49F08091B3329091B4321E
:102E200085DC1092B4321092B332CE01DF91CF9193
:102E30001F910F910895CDE6D1E3EECF8091B3328B
:102E40009091B43270CC2F923F924F925F926F92DA
:102E50007F928F929F92AF92BF92CF92DF92EF922A
:102E6000FF920F931F93CF93DF93CDB7DEB7699790
:102E70000FB6F894DEBF0FBECDBF2091B73222232C
:102E8000F1F05B8B4A8B6E877F87888B998B9A01D9
:102E9000AB01BC01CE0101967C019AD910E048E05B
:102EA000242E312CE88EF98E89819A811816190604
:102EB0000CF450C2112319F08A899B89A3DC69960E
:102EC0000FB6F894DEBF0FBECDBFDF91CF911F913B
:102ED0000F91FF90EF90DF90CF90BF90AF909F90B9
:102EE0008F907F906F905F904F903F902F900895BC
:102EF000EB81FC818C859D8533E0880F991F3A9585
:102F0000E1F7E80FF91F808191819093AE328093B1
:102F1000AD3224813581428153815093AC3240934C
:102F2000AB32468157815093AA324093A932820F27
:102F3000931F9C01990F440B550B2C8B3D8B4E8B93
:102F40005F8B812C912C54018C899D89AE89BF891E
:102F500088169906AA06BB0638F18C859D85880FD0
:102F6000991FED81FE81E80FF91F4E855F85688905
:102F70007989808191810E944A0CAC85BD8511962A
:102F8000BD87AC8789819A81EC85FD85E817F907B3
:102F90000CF4AECF2A893B894E855F856889798993
:102FA000888D998D15D980CF1F826091AD32709137
:102FB000AE32CB01072E000CAA0BBB0B84017501AE
:102FC000640134E0C30ED11CE11CF11CC816D90603
:102FD000EA06FB0608F0B3C02091AB323091AC3268
:102FE000A4014C5F5F4F240F351FF901C080D12C25
:102FF000F12CE12C24013501F5E04F0E511C611C30
:10300000711C481659066A067B0608F0A3C0209179
:10301000AB323091AC32F8013596E20FF31F2081CC
:10302000D22A2401350126E0420E511C611C711C7C
:10303000481659066A067B0608F097C02091AB3205
:103040003091AC32F8013696E20FF31F2081E22A6C
:103050002401350137E0430E511C611C711C4816D8
:1030600059066A067B0608F08BC02091AB3230917E
:10307000AC32F8013796E20FF31F208126013701A9
:10308000722A7501640148E0C40ED11CE11CF11CD8
:103090008C159D05AE05BF0508F41DC1881699065F
:1030A000AA06BB0608F077C08091AB329091AC3293
:1030B000800F911F68E070E082DBE091AD32F0910B
:1030C000AE329F010F2E000C440B550BD301C201F1
:1030D0008C0D9D1DAE1DBF1D281739074A075B07C4
:1030E00008F478C0C216D306E406F50608F05DC001
:1030F0008091AB329091AC329801285F3F4F820FA4
:10310000931FB2015CDB8091AD329091AE32AC0185
:10311000092E000C660B770BC416D506E606F706DB
:1031200008F04DC0085F1F4F8091AB329091AC32D8
:10313000800F911FA20170E060E0F0D5A7C044E0CD
:1031400050E0461B570B480D591D2091A932309174
:10315000AA3249CFE5E0F0E0E61BF70BE00FF11FE4
:103160002091A9323091AA3258CFE6E0F0E0E61B78
:10317000F70BE00FF11F2091A9323091AA3264CFF2
:10318000E7E0F0E0E61BF70BE00FF11F2091A9321A
:103190003091AA3270CF9801261B370B8091A9324B
:1031A0009091AA32820F931F85CF91012E1B3F0B66
:1031B000200F311F8091A9329091AA32A0CFD10166
:1031C000A81BB90BCD01080F191F8091A93290914E
:1031D000AA32AECFBF0168507109601B710BC216D5
:1031E000D306E406F50608F062C08091AB329091F8
:1031F000AC329801285F3F4F820F931FE0DA809135
:10320000AD329091AE32B101681B790B600F711F26
:10321000640D751D8091A9329091AA32D0DA809107
:10322000AD329091AE32AC0148505109FA01E01B29
:10323000F10BAC01092E000C660B770BC416D506FA
:10324000E606F70608F03DC08091AB329091AC32B3
:103250009801285F3F4F820F931FAF0170E060E03D
:103260005DD58F832091AD323091AE32F101E21BFA
:10327000F30B9F01200F311F240D351D50E040E05E
:10328000682F8091A9329091AA3234D58F8361E062
:1032900070E0CE01079693DA182F38E0430E511CE8
:1032A000611C711C840C951CA61CB71C4DCE910191
:1032B0002E1B3F0B200F311F8091A9329091AA3213
:1032C0009BCF9101281B390B200F311F8091A93210
:1032D0009091AA32C0CF88169906AA06BB0668F557
:1032E000601B710B8091AB329091AC32800F911FBB
:1032F00066DA8091AD329091AE32B101681B790BE4
:10330000600F711F640D751D8091A9329091AA32D2
:1033100056DA8091AD329091AE32AC01092E000C9C
:10332000660B770BC416D506E606F70608F4FACE48
:103330009101281B390BC90146CFC801861B970B89
:103340002091A9323091AA32B201685F7F4F820F7B
:10335000931FDECF1D861C8615CECF93DF93EC0125
:10336000AC0160E070E0CB016EDDAE0161E070E0C9
:1033700080E090E0DF91CF9166CDCF938091B33222
:103380009091B4328CD9C82F81110BC060E070E0ED
:10339000CB010E94410761E070E080E090E00E9474
:1033A00041078C2FCF9108950F931F9389019A01A4
:1033B000AB01BC018091B3329091B432B8D91F9166
:1033C0000F9108954F925F926F927F928F929F928A
:1033D000AF92BF92CF92DF92EF92FF920F931F9323
:1033E000CF93DF93CDB7DEB763970FB6F894DEBF08
:1033F0000FBECDBF6C018B015A018091B73288237B
:1034000009F43DC08091B732882309F442C080910D
:10341000B6321A821982882309F4BEC0F0E94F2E11
:10342000FFE55F2E66246394712CF12CE12C97014B
:1034300021563D4CAE014F5F5F4F61E070E08091DF
:10344000B3329091B4324BD9982E811169C08981E1
:103450009A81E80EF91EE114F10409F461C081E0DB
:10346000481A51086108710859F56091C23270918B
:10347000C3328DEE90E06AD91A82198251C067EB8F
:1034800072E38091B3329091B43252D9882309F417
:10349000B9CF63960FB6F894DEBF0FBECDBFDF91F4
:1034A000CF911F910F91FF90EF90DF90CF90BF9041
:1034B000AF909F908F907F906F905F904F90089506
:1034C000AAE0EA16F10409F061C049E050E070E0BA
:1034D00060E08FE992E326D46091C2327091C332EA
:1034E000882309F450C08091A73290E0861797078F
:1034F00019F6BC018EEE90E029D988E0EFE9F2E3FD
:10350000DE01199601900D928A95E1F78091C23201
:103510009091C332019699279093C3328093C2321F
:1035200081E029813A81121613060CF080E0911097
:10353000C8C2882309F4ADCF8091B632811104C08E
:1035400019861A861B861C8689859A85AB85BC855B
:1035500080319105A105B10508F09BCFFC01ED5428
:10356000F54E0C94E124331BF21C611D491A371CE3
:103570006A1C231B2B1B071B461D351D421D491AA8
:10358000491A491AF21A8FEE90E075CFBAE0EB169D
:10359000F1040CF44CCFC4CFF12CE12CE8E06E2EFA
:1035A000712C29E030E02C0F3D1F2E0D3F1DAE0188
:1035B0004F5F5F4FB3016E197F098091B3329091D5
:1035C000B4328DD8982E29813A81811109C0E20E3A
:1035D000F31EE114F10421F0E8E0EE16F1040CF31F
:1035E00081E0A1CFD6011696ED91FC918081918169
:1035F000A281B38189839A83AB83BC83AE014F5F81
:103600005F4F64E070E085E190E03ADB42CF8D856A
:103610009E8515D92FEF3FEFA90161E070E000977B
:1036200071F0FC01C080D180E280F380A801C70165
:10363000B6010E94C30BA701960170E060E08DE126
:1036400090E051DB26CF4D855E859801B6018BE178
:1036500090E075DB1ECF4D855E852FEF3FEFB60105
:103660008CE190E0F6CFD6011496ED91FC910081AB
:103670001181F80182809380A080B18070E1472E93
:10368000512C612C712C49825A826B827C8288E099
:1036900090E0A0E0B0E08D839E83AF83B8879E0169
:1036A0002F5E3F4FAE014F5F5F4F68E070E080914B
:1036B000B3329091B4320E9451138823D9F010E0B4
:1036C00000E0C80163960FB6F894DEBF0FBECDBF11
:1036D000DF91CF911F910F91FF90EF90DF90CF90EE
:1036E000BF90AF909F908F907F906F905F904F9022
:1036F0000C94B12589899A89089709F7D801ED902A
:10370000FC90B8E0EB0EF11CEE0CFF1CEE0CFF1C65
:10371000C7010E9415258C01892B89F249825A82A2
:103720006B827C82C7010F2C000CAA0BBB0B8D8314
:103730009E83AF83B8879E012F5E3F4FAE014F5FE0
:103740005F4F68E070E08091B3329091B4320E9494
:1037500051138111B6CF89899A89089709F0B1CFA1
:10376000D6011296ED91FC91408151816281738165
:10377000D8014D935D936D937C931397448155814C
:103780006681778114964D935D936D937C93179723
:10379000408551856285738518964D935D936D9331
:1037A0007C931B9784859585A685B785F8018487CA
:1037B0009587A687B787108A118A128A138A84E0B0
:1037C00090E0A0E0B0E0848B958BA68BB78B8091C6
:1037D000993090919A30B0E0A0E0808F918FA28FC5
:1037E000B38FC5010B2C000CAA0BBB0B848F958FDC
:1037F000A68FB78FF401D801909690E080E08A15EB
:103800009B055CF19E012F5E3F4FA801B70180919F
:10381000B3329091B4320E945113811152CF8989F1
:103820009A89E816F90609F04CCFA70170E060E02C
:10383000C80174D28B8B9E012F5E3F4FAE014D5E4F
:103840005F4F61E070E08091B3329091B4320E949A
:10385000511381E08093B63234CF4191519170E0A1
:1038600060E04D935D936D937D930196C8CF8D85F8
:103870009E85AF85B8890097A105B10521F481E047
:103880008093B53206CE0E941F14009781F481E028
:1038900090E0A0E0B0E089839A83AB83BC83AE0163
:1038A0004F5F5F4F64E070E082E190E0AECEBC011C
:1038B000C6010E949A0619821A821B821C82AE01DE
:1038C0004F5F5F4F64E070E082E190E0D9D98823D8
:1038D000B1F2DFCDD6011496ED91FC910190F0810B
:1038E000E02DE084F1848FEF8983E114F10409F481
:1038F00072C0D7016D907C90C280D38070E060E090
:1039000090E080E08615970594F083E190E00E94B6
:10391000A61310E000E08111BCCD061517055CF17F
:1039200061E070E0CE0101960E94DF13B2CD9C01F0
:1039300043E0220F331F4A95E1F7F701A281B381DB
:10394000A20FB31F1296ED91FC911397EE0FFF1F7C
:10395000EC0DFD1D0190F081E02D16964D915C91CE
:10396000E49F9001E59F300DF49F300D1124620F0C
:10397000731F0196C7CFD7011296ED91FC91C80134
:1039800023E0880F991F2A95E1F7E80FF91FA0801F
:10399000B180A281B381AA0FBB1FAC0DBD1D2D91BB
:1039A0003C9186819781289F4001299F900C389FE8
:1039B000900C1124B401C5010E94DF13582E94010C
:1039C00050E040E06981C50195D18983511061CDF6
:1039D0000F5F1F4FA2CF70E060E083E190E00E9494
:1039E000A61357CD50E040E070E060E081E190E048
:1039F00047D981114ECD60E070E0CB010E9468088C
:103A000080919932882329F0A80160E070E0CB0111
:103A10001ADAA80160E070E0CB010E946D0761E056
:103A200070E080E090E00E946808809199328823DD
:103A300031F0A80161E070E080E090E004DAA801D4
:103A400061E070E080E090E00E946D071092B73274
:103A50001092B6321092C3321092C2328091B332B9
:103A60009091B4320E949E1314CD81E090E0909327
:103A70009B3280939A3250E040E070E060E086E153
:103A800090E0C3CD81E0F501808303CD8D859E85D7
:103A90000E941F142FEF3FEFA90161E070E0009733
:103AA00069F0DC01CD90DD90ED90FC90C701B6018E
:103AB0000E94230CA701960170E060E08EE190E087
:103AC000C0CDC8010E940214E4CCCF92DF92EF92E5
:103AD000FF92CF93DF93EC01C12CD12C7601C7016B
:103AE000B6010E946808AE01C701B601ACD9AE01AB
:103AF000C701B6010E946D078091AF329091B0323C
:103B0000009731F00E94B1251092B0321092AF327E
:103B1000CA94CD28CE28CF2879F58091B632F12CE1
:103B2000882351F050E040E070E060E084E190E0F4
:103B3000A7D8F82E1092B6328091B732882341F080
:103B40001092B73281E090E090939A308093993050
:103B50008091B3329091B4320E94A1138091B3321C
:103B60009091B4320E9496138F2DDF91CF91FF90E8
:103B7000EF90DF90CF900895C12CD12C7601C394A3
:103B8000AECFCF93DF93EC01AC0160E070E0CB01EE
:103B90000E945810AE0161E070E080E090E0DF919B
:103BA000CF910C94581060E070E0CB010E94C510DA
:103BB00061E070E080E090E00C94C510CF92DF925D
:103BC000EF92FF920F931F93CF93DF93EC016A0163
:103BD0007B0100E010E098010E94730C01E010E00E
:103BE00020E030E0B701A601CE010E94730CDF9106
:103BF000CF911F910F91FF90EF90DF90CF9008959C
:103C000068EE73E080E090E0C8D390E080E0089533
:103C100026E040E050E16EE070E081ED92E38AD56D
:103C200081ED92E3BDD4892B21F081ED92E3D2D4D2
:103C3000F7CF90E080E00895CF92DF92EF92FF926D
:103C40000F931F93CF93DF936B017A01E9011982E0
:103C5000188281ED92E3A4D4892B71F18601CC24E2
:103C6000C39485E6D82E8091C432811111C081EDB4
:103C700092E3B0D485369105B1F7C092C432F80111
:103C8000D1928F0188819981019699838883EBCFA6
:103C9000888199818E159F0578F481ED92E39AD4FD
:103CA0008F3F9807A9F3F80181938F01888199814B
:103CB000019699838883ECCF90E080E0DF91CF91EB
:103CC0001F910F91FF90EF90DF90CF9008950F9389
:103CD0001F93CF93DF93EA01890181ED92E30ED622
:103CE000F801D183C08390E080E0DF91CF911F91F4
:103CF0000F910895DC01A40FB51F420F531F9D01C2
:103D0000281B390B2417350710F0862F0895ED91E5
:103D1000E627F0E0E859FF4F6491F1CF9A01AB013B
:103D20006FEFE8CFCF93FC01E60FF71FE40FF51F0D
:103D3000C081F4DF91E0C81390E0892FCF910895FE
:103D40008091C53291E0980F9093C532882349F055
:103D500021E030E03093C7322093C6328093C532E1
:103D6000089578940E946401F8948091C53281503E
:103D70008093C5320C944212FF920F931F93CF93FE
:103D8000DF931F92CDB7DEB71092E4331092E33386
:103D90003AD30E9494120091B0301091B130F801E2
:103DA0001182108270E060E090E080E00E944A1290
:103DB0000E94FA03F8947894C80186960E944912EA
:103DC00081E090E00E9446121982AE014F5F5F4F82
:103DD00061E070E0F801828193810E94F61189818F
:103DE000882319F081E0F80182A70E944F12F8940D
:103DF0000E94CA12F80180819181892B19F481E017
:103E000092A5911180E08093E33378947894FF2415
:103E1000F3948091E333811110C00E94330581E057
:103E200090E00E944712F89490E080E00F90DF91BC
:103E3000CF911F910F91FF9008951982AE014F5FAE
:103E40005F4F61E070E0F801828193810E942E1241
:103E50008981882311F0F801F2A6F801808191810F
:103E6000892B89F481E092A5911101C080E08093B3
:103E7000E4339091E43381E0911180E08093E33367
:103E80000E94E912C6CF81E0F2CF5058BB27AA2783
:103E90000ED05CC14DD130F052D120F031F49F3FB3
:103EA00011F41EF442C10EF4E095E7FB0FC1E92FB7
:103EB0005ED180F3BA17620773078407950718F07D
:103EC00071F49EF58DC10EF4E0950B2EBA2FA02D46
:103ED0000B01B90190010C01CA01A0011124FF27B7
:103EE000591B99F0593F50F4503E68F11A16F040B2
:103EF000A22F232F342F4427585FF3CF46953795B1
:103F00002795A795F0405395C9F77EF41F16BA0B75
:103F1000620B730B840BBAF09150A1F0FF0FBB1F23
:103F2000661F771F881FC2F70EC0BA0F621F731F6C
:103F3000841F48F4879577956795B795F7959E3FC9
:103F400008F0B3CF9395880F08F09927EE0F979557
:103F5000879508952ED180F09F3740F491110EF48B
:103F600040C160E070E080E89FE3089526F01B16F2
:103F7000611D711D811DB0C0CAC084D008F481E0EC
:103F8000089504D06894B1112CC10895F8D088F038
:103F90009F5790F0B92F9927B751A0F0D1F0660F35
:103FA000771F881F991F1AF0BA95C9F712C0B13050
:103FB00081F016D1B1E0089513C1672F782F8827BB
:103FC000B85F39F0B93FCCF3869577956795B3958F
:103FD000D9F73EF490958095709561957F4F8F4FFE
:103FE0009F4F0895E89409C097FB3EF49095809503
:103FF000709561957F4F8F4F9F4F9923A9F0F92FAF
:1040000096E9BB279395F695879577956795B7952C
:10401000F111F8CFFAF4BB0F11F460FF1BC06F5F12
:104020007F4F8F4F9F4F16C0882311F096E911C024
:10403000772321F09EE8872F762F05C0662371F045
:1040400096E8862F70E060E02AF09A95660F771F59
:10405000881FDAF7880F9695879597F90895A9D064
:1040600080F09F3740F491110EF0BBC060E070E02B
:1040700080E89FEB089526F41B16611D711D811DBC
:104080002BC045C0990F0008550FAA0BE0E8FEEFC2
:1040900016161706E807F907C0F012161306E4070C
:1040A000F50798F0621B730B840B950B39F40A2605
:1040B00061F0232B242B252B21F408950A2609F4E3
:1040C000A140A6958FEF811D811D089597F99F67E7
:1040D00080E870E060E00895882371F4772321F090
:1040E0009850872B762F07C0662311F499270DC0AF
:1040F0009051862B70E060E02AF09A95660F771F4A
:10410000881FDAF7880F9695879597F908959F3F4E
:1041100031F0915020F4879577956795B795880F82
:10412000911D9695879597F908959FEF80EC0895D6
:1041300000240A9416161706180609060895002486
:104140000A9412161306140605060895092E039400
:10415000000C11F4882352F0BB0F40F4BF2B11F474
:1041600060FF04C06F5F7F4F8F4F9F4F089557FDD3
:104170009058440F551F59F05F3F71F04795880FD5
:1041800097FB991F61F09F3F79F08795089512166C
:1041900013061406551FF2CF4695F1DF08C0161618
:1041A00017061806991FF1CF8695710561050894C9
:1041B0000895E5DFA0F0BEE7B91788F4BB279F3864
:1041C00060F41616B11D672F782F8827985FF7CFF8
:1041D000869577956795B11D93959639C8F308959F
:1041E000E894BB2766277727CB0197F908954ADF24
:1041F00008F48FEF08950BD0A9CF9ADF28F09FDF46
:1042000018F0952309F062CF90CF1124EACFAFDFE9
:10421000A0F3959FD1F3950F50E0551F629FF001D9
:10422000729FBB27F00DB11D639FAA27F00DB11D32
:10423000AA1F649F6627B00DA11D661F829F2227BB
:10424000B00DA11D621F739FB00DA11D621F839F42
:10425000A00D611D221F749F3327A00D611D231F18
:10426000849F600D211D822F762F6A2F11249F5766
:1042700050408AF0E1F088234AF0EE0FFF1FBB1F89
:10428000661F771F881F91505040A9F79E3F510528
:1042900070F01CCFA6CF5F3FECF3983EDCF3869521
:1042A00077956795B795F795E7959F5FC1F7FE2BD3
:1042B000880F911D9695879597F908951F920F92F3
:1042C0000FB60F9211242F933F938F939F93AF9329
:1042D000BF938091C9329091CA32A091CB32B091F4
:1042E000CC323091C83223E0230F2D3758F5019698
:1042F000A11DB11D2093C8328093C9329093CA3258
:10430000A093CB32B093CC328091CD329091CE320B
:10431000A091CF32B091D0320196A11DB11D8093F2
:10432000CD329093CE32A093CF32B093D032BF91A2
:10433000AF919F918F913F912F910F900FBE0F9052
:104340001F90189526E8230F0296A11DB11DD2CF0C
:104350003FB7F8948091CD329091CE32A091CF3278
:10436000B091D03226B5A89B05C02F3F19F0019619
:10437000A11DB11D3FBFBA2FA92F982F8827BC01BF
:10438000CD01620F711D811D911D42E0660F771FE7
:10439000881F991F4A95D1F708958F929F92AF92E7
:1043A000BF92CF92DF92EF92FF926B017C01D0DF40
:1043B0004B015C01C114D104E104F104D9F0CBD26A
:1043C000C7DF681979098A099B09683E734081052E
:1043D000910580F321E0C21AD108E108F10888EEC6
:1043E000880E83E0981EA11CB11CC114D104E10405
:1043F000F10431F7FF90EF90DF90CF90BF90AF9036
:104400009F908F900895789484B5826084BD84B520
:10441000816084BD85B5826085BD85B5816085BDBF
:10442000EEE6F0E0808181608083E1E8F0E01082D8
:10443000808182608083808181608083E0E8F0E019
:10444000808181608083E1EBF0E080818460808303
:10445000E0EBF0E0808181608083EAE7F0E080813A
:10446000846080838081826080838081816080839A
:104470008081806880831092C1000895833081F02C
:1044800028F4813099F08230A9F008958730A9F09E
:104490008830C9F08430B1F4809180008F7D03C0F2
:1044A000809180008F7780938000089584B58F7706
:1044B00084BD089584B58F7DFBCF8091B0008F7748
:1044C0008093B00008958091B0008F7DF9CFCF9395
:1044D000DF9390E0FC01E458FE4F249180579E4FFB
:1044E000FC0184918823C9F090E0880F991FFC019A
:1044F000E255FE4FA591B491FC01EC55FE4FC591DC
:10450000D49161110DC09FB7F8948C9120958223AE
:104510008C938881282328839FBFDF91CF910895B2
:10452000623051F49FB7F8943C91822F8095832399
:104530008C93E8812E2BEFCF8FB7F894EC912E2B34
:104540002C938FBFEACF1F93CF93DF93282F30E0B8
:10455000F901E859FE4F8491F901E458FE4FD491D6
:10456000F901E057FE4FC491CC23A1F0162F811121
:1045700085DFEC2FF0E0EE0FFF1FEC55FE4FA5910D
:10458000B4918FB7F894EC91111108C0D095DE2347
:10459000DC938FBFDF91CF911F910895DE2BF8CF71
:1045A000FC01918D228D892F90E0805C9F4F821BB2
:1045B00091098F7399270895FC01918D828D981729
:1045C00031F0828DE80FF11D858D90E008958FEF19
:1045D0009FEF0895FC01918D828D981761F0A28D57
:1045E000AE0FBF2FB11D5D968C91928D9F5F9F7313
:1045F000928F90E008958FEF9FEF0895FC01538D07
:10460000448D252F30E0842F90E0821B930B5417AC
:1046100010F0CF96089501970895FC01A48DA80F7E
:10462000B92FB11DA35ABF4F2C91848D90E00196F4
:104630008F739927848FA689B7892C93A089B18914
:104640008C91837080648C93938D848D981306C0B5
:104650000288F389E02D80818F7D80830895CF9338
:10466000DF93EC01888D8823B1F0AA89BB89E889A2
:10467000F9898C9185FD03C0808186FD0CC00FB641
:1046800007FCF7CF8C9185FFF2CF808185FFEDCFBE
:10469000CE01C3DFEACFDF91CF910895EF92FF9271
:1046A0000F931F93CF93DF93EC0181E0888F9B8D55
:1046B0008C8D98131AC0E889F989808185FF15C00F
:1046C0009FB7F894EE89FF896083E889F989808132
:1046D0008370806480839FBF81E090E0DF91CF9101
:1046E0001F910F91FF90EF900895F62E0B8D10E023
:1046F0000F5F1F4F0F731127E02E8C8D8E110BC093
:104700000FB607FCFACFE889F989808185FFF5CFDC
:10471000CE0183DFF2CFEB8DEC0FFD2FF11DE35ABD
:10472000FF4FF0829FB7F8940B8FEA89FB89808155
:104730008062D0CFCF92DF92EF92FF921F93CF9300
:10474000DF93EC016A017B01122FE889F98982E08D
:104750008083C11481EED806E104F10499F060E091
:1047600079E08DE390E0A701960109D1215031094C
:10477000410951095695479537952795211580E1AF
:10478000380790F0E889F989108260E874E88EE1D2
:1047900090E0A7019601F3D0215031094109510958
:1047A0005695479537952795EC85FD853083EE85A1
:1047B000FF852083188EEC89FD891083EA89FB89A7
:1047C000808180618083EA89FB8980818860808321
:1047D000EA89FB89808180688083EA89FB898081FE
:1047E0008F7D8083DF91CF911F91FF90EF90DF90BD
:1047F000CF9008951F920F920FB60F9211242F930E
:104800008F939F93EF93FF93E091E132F091E23227
:104810008081E091E732F091E83282FD1BC0908107
:104820008091EA328F5F8F732091EB32821741F0D3
:10483000E091EA32F0E0EF52FD4C958F8093EA323E
:10484000FF91EF919F918F912F910F900FBE0F903D
:104850001F9018958081F4CF1F920F920FB60F9280
:1048600011242F933F934F935F936F937F938F9375
:104870009F93AF93BF93EF93FF9381ED92E3CDDED0
:10488000FF91EF91BF91AF919F918F917F916F9128
:104890005F914F913F912F910F900FBE0F901F90FE
:1048A0001895E1EDF2E31382128288EE93E0A0E026
:1048B000B0E084839583A683B7838CEA91E39183E8
:1048C000808385EC90E09587848784EC90E09787DF
:1048D000868780EC90E0918B808B81EC90E0938BCD
:1048E000828B82EC90E0958B848B86EC90E0978BAA
:1048F000868B118E128E138E148E0895AF92BF92F6
:10490000CF92DF92EF92FF920F931F93CF93DF939B
:104910006C017B018B01040F151FEB015E01AE18CA
:10492000BF08C017D10759F06991D601ED91FC91EC
:104930000190F081E02DC6010995892B79F7C50119
:10494000DF91CF911F910F91FF90EF90DF90CF906B
:10495000BF90AF900895089597FB072E16F400942A
:1049600006D077FD08D033D007FC05D03EF49095F3
:1049700081959F4F0895709561957F4F0895A1E2AD
:104980001A2EAA1BBB1BFD010DC0AA1FBB1FEE1FC9
:10499000FF1FA217B307E407F50720F0A21BB30B14
:1049A000E40BF50B661F771F881F991F1A9469F790
:1049B00060957095809590959B01AC01BD01CF01EC
:1049C0000895EE0FFF1F0590F491E02D0994AA1BA6
:1049D000BB1B51E107C0AA1FBB1FA617B70710F0EA
:1049E000A61BB70B881F991F5A95A9F7809590951C
:1049F000BC01CD0108950F931F93CF93DF93869F42
:104A00008001879F100D969F100D1124C8010DD0B5
:104A1000EC01009721F0A80170E060E034D1CE01F4
:104A2000DF91CF911F910F9108950F931F93CF9313
:104A3000DF938230910510F482E090E0E091E7335B
:104A4000F091E83330E020E0B0E0A0E0309799F456
:104A50002115310509F44AC0281B390B24303105D2
:104A6000D8F58A819B816115710589F1FB019383DA
:104A70008283FE0111C04081518102811381481758
:104A80005907E0F04817590799F4109761F012960A
:104A90000C93129713961C933296CF01DF91CF910E
:104AA0001F910F9108950093E7331093E833F4CFEB
:104AB0002115310551F04217530738F0A901DB01E8
:104AC0009A01BD01DF01F801C1CFEF01F9CF909349
:104AD000E8338093E733CDCFFE01E20FF31F8193DC
:104AE00091932250310939832883D7CF2091E53320
:104AF0003091E633232B41F42091020130910301E0
:104B00003093E6332093E533209100013091010189
:104B10002115310541F42DB73EB740910401509164
:104B20000501241B350BE091E533F091E633E217E4
:104B3000F307A0F42E1B3F0B2817390778F0AC01C0
:104B40004E5F5F4F2417350748F04E0F5F1F50939D
:104B5000E6334093E533819391939FCFF0E0E0E01B
:104B60009CCFCF93DF930097E9F0FC01329713823B
:104B70001282A091E733B091E833ED0130E020E0FC
:104B80001097A1F420813181820F931F2091E5338A
:104B90003091E6332817390709F061C0F093E63306
:104BA000E093E533DF91CF910895EA01CE17DF0757
:104BB000E8F54A815B819E0141155105B1F7E90194
:104BC000FB83EA8349915991C40FD51FEC17FD0768
:104BD00061F4808191810296840F951FE901998388
:104BE0008883828193819B838A83F0E0E0E0129640
:104BF0008D919C9113970097B9F52D913C91119748
:104C0000CD010296820F931F2091E5333091E63358
:104C10002817390739F6309751F51092E83310927A
:104C2000E733B093E633A093E533BCCFD383C2839D
:104C300040815181840F951FC817D90761F44E5FD9
:104C40005F4F88819981480F591F518340838A8122
:104C50009B81938382832115310509F0B0CFF093B6
:104C6000E833E093E7339ECFFD01DC01C0CF138230
:104C70001282D7CFFB01DC0102C001900D9241509E
:104C80005040D8F70895DC0101C06D934150504069
:104C9000E0F70895FB01DC018D910190801901106E
:0A4CA000D9F3990B0895F894FFCFA3
:104CAA000000E93380000080FB4300C00344008019
:104CBA00FF43008004440000024400C00244008014
:104CCA000544004007440080074400C0074400C070
:104CDA00074400400744000007440000064400401F
:104CEA00044400C00344008002440040024400001F
:104CFA0001440080FF43008002440000F7430000A3
:104D0A00FF430080FA430080FC430080FD4300001B
:104D1A00FD430080FE430080FC430000FE43008008
:104D2A00FE430000FE430080FD430000FD430000F7
:104D3A00FE430080FE430080FD430000FD430080E7
:104D4A00FD430080FC430000FF430080FD430080D8
:104D5A00FD430000FE430080FD430080FD430080C8
:104D6A00FE430000FD430000FF430000FE43000035
:104D7A00FF430000FF430000FE430080FF430000A2
:104D8A00FE430080FF43000000440080FF43000010
:104D9A0001440000FA43004002440000FF4300803F
:104DAA0004440040014400800344004005440000DC
:104DBA00074400800744004007440080074400007D
:104DCA0006440000064400000644008004440080B3
:104DDA0003440000014400C00044000003440000F2
:104DEA00F8430080FD430000FA430000F9430080C5
:104DFA00F9430000F7430080F7430080F74300803F
:104E0A00F7430080FA430080F8430080F9430080AA
:104E1A00FC430080FB430080FD430080FD4300808B
:104E2A00FD430080FF43000000440080FF430080F0
:104E3A00FF430000FE43004000440000FF4300001F
:104E4A00FF430080FF430000FD430000FF43008052
:104E5A00FE430000FD430000FD430080FD43008047
:104E6A00FD430080FD430080FD430080FC43008039
:104E7A00FE430080FD430000FF430080FD43000025
:104E8A00FE430000FE430080FD430080FE43000015
:104E9A00FE430080FD430080FE430080FD43008006
:104EAA00FD430080FD430000FE430080FF43008075
:104EBA00FD430080FE430000FE430000FF430080E4
:104ECA00004400400044004001440080FC430000CC
:104EDA0003440000FF430080044400000144000032
:104EEA000444000005440000064400800644008093
:104EFA0006440040074400C005440000054400C0C1
:104F0A00044400400344000003440080014400C0FC
:104F1A000044004003440080F7430080FD43000042
:104F2A00FB430080F9430000F9430080F843000086
:104F3A00F8430080F8430080F7430000FA430080FA
:104F4A00FA430000FB430000FD430000FD4300005C
:104F5A00FE430080FF430080FE430080FF430000C1
:104F6A0000440080FF430080FF430000FE4300002E
:104F7A00FF430000FE430080FD430000FE43008023
:104F8A00FC430000FD430000FD430080FC43008019
:104F9A00FC430080FC430000FD430000FE43008008
:104FAA00FC430080FC430080FD430080FC430080FA
:104FBA00FE430080FD430080FD430000FF43008064
:104FCA00FD430080FD430000FE430000FD430080D6
:104FDA00FF430000FD430000FF430000FE430000C2
:104FEA00FE430000FF430000FE430000FE430000B2
:104FFA0000440080FE43004001440080F943000061
:10500A0002440080FE43000004440080FF43004045
:10501A00054400C00044008005440080014400406B
:10502A00034400C004440040044400000544000056
:10503A00064400C0044400C004440000034400C005
:10504A00024400800244000001440000004400C001
:10505A0001440080F6430080FC430080F9430000CD
:10506A00F8430080F7430000F7430080F8430080CC
:10507A00F7430080F8430000FB430000FB43008035
:10508A00FC430000FE430080FE430080FF430040D3
:10509A0000440080004400400044000000440080B6
:1050AA00004400C000440080FF43000000440000A8
:1050BA00FE430080FF430080FD430080FD430080E3
:1050CA00FE430000FE430080FD430000FE430080D3
:1050DA00FC430000FE430000FE430000FE43008044
:1050EA00FD430080FC430000FD430080FD43008037
:1050FA00FC430000FE430000FD430080FE430080A5
:10510A00FE430080FD430080FD430080FD43000014
:10511A00FE430080FE430080FD430000FF43000081
:10512A00004400000044004001440000FA4300C06B
:10513A0002440000FE4300C0034400400044000053
:10514A0005440080004400C0054400C0004400C07B
:10515A0004440080004400C003440040004400802E
:10516A0003440080FD4300C002440080FB4300402A
:10517A0002440080FA43000002440080FA4300809F
:10518A0001440000F943004001440080F843000054
:10519A0002440000FB43008001440000FB4300007E
:1051AA0001440000FC43004002440000FA4300406E
:1051BA0002440080FA43008002440000FC4300C01D
:1051CA0001440000FC4300C001440080FA4300C0CF
:1051DA0001440080F943008001440000FB43008041
:1051EA0001440080FA430040004400C000440080AB
:1051FA0001440000F84300C0004400C0004400809D
:10520A000044000001440000F7430040004400400D
:10521A0000440000004400C0004400000044008034
:10522A00FE43004000440000FD430080FF430000AD
:10523A00FD430000FE430080FE430000FE43008061
:10524A00FF43000000440080FF4300400044000088
:10525A0001440000FA4300C002440000FE4300403B
:10526A00044400C0004400C004440000014400C0DB
:10527A00024400000444004005440040054400C0C4
:10528A0005440080054400400544004004440000F1
:10529A00034400C002440000024400C0004400006D
:1052AA0003440000F7430080FD430080FB430000F5
:1052BA00F9430080F8430080F7430080F743000079
:1052CA00F9430000F9430080F8430080F9430000E5
:1052DA00FB430000FD430080FD430080FD43008046
:1052EA00FF430080FE43000000440080FF430000AB
:1052FA00004400400044004000440000FF43000016
:10530A0000440000FE43000000440000FE43000089
:10531A00FE430000FE430080FC430000FE43000001
:10532A00FE430080FD430080FE430080FD43008071
:10533A00FE430000FE430080FD430000FE43008060
:10534A00FD430080FF430080FE430080FD43008050
:10535A00FE430000FF430080FD430080FE430080BF
:10536A00FD430080FE43000000440080FE4300002D
:10537A0000440080FF4300C0004400800144000054
:10538A00FC43000003440000FF4300800444004043
:10539A0001440000034400800444004006440080A5
:1053AA00064400000744000006440000064400C00A
:1053BA0005440080044400C003440040034400C084
:1053CA00014400C0014400C00044004002440000FF
:1053DA00F8430000FD430080FC430000FA4300004C
:1053EA00F8430080F8430080F7430080F9430080C7
:1053FA00F8430080FA430000FA430080FC430000AF
:10540A00FE430080FE430080FD430080FE4300000F
:10541A0000440080FF43004000440080FF430040F6
:10542A000044004000440080FE430000FF430000A7
:10543A00FE430000FE430000FF430000FC430080DF
:10544A00FE430000FE430080FD430000FF430000CE
:10545A00FD430080FD430080FE430080FC43008042
:10546A00FE430000FE430000FE430000FF4300002D
:10547A00FE430000FE430000FE430000FE4300001E
:10548A0000440080FE430080FD430080FE4300800C
:10549A00FD430080FF430080FF430000FF4300807C
:1054AA000044004001440080FB4300400244008065
:1054BA00FE4300400444008001440080034400800D
:1054CA00054400C0054400400744008007440080AA
:1054DA00064400C006440000054400C004440040DD
:1054EA000444008002440000024400000144008099
:1054FA000044004002440080F6430000FD430000DF
:10550A00FB430080F8430080F8430080F543000025
:10551A00F7430080F8430080F7430000F943000096
:10552A00FA430080FA430000FD430080FD43000077
:10553A00FE430080FF430000FF4300C00044008098
:10554A00FF4300400044008000440080FF43008085
:10555A0000440080FF430000FE430080FF430080B8
:10556A00FE430080FE430000FE430080FD4300002E
:10557A00FE430000FE430080FD430000FF4300801D
:10558A00FC430000FE430080FD430000FD43008011
:10559A00FD430080FD430000FE430000FE4300007F
:1055AA00FD430000FF430000FE430080FE4300006D
:1055BA00FF430000FE430000FF430080FF430080DA
:1055CA00FF4300C00044000001440080FB43008008
:1055DA0003440000FF4300C004440000014400806B
:1055EA0003440040054400C006440000074400008C
:1055FA000744008006440040074400C0054400C038
:10560A0004440040044400C00244004002440040F4
:10561A0001440080FF4300C002440080F6430000BA
:10562A00FD430080FA430080F8430000F8430080FD
:10563A00F7430080F6430080F7430000F743000079
:10564A00FA430080FB430000FB430000FD430000D7
:10565A00FD430080FE430080FF430000FF4300003B
:10566A0000440080FF430080FF4300000044000024
:10567A00FE430000FF430000FF430080FE4300009A
:10568A00FF430000FD430000FE430000FE4300808C
:10569A00FD430000FE430000FD430080FD430080FF
:1056AA00FE430080FE430000FE430080FE430000EC
:1056BA00FF4300400044000000440000FF43000094
:1056CA0000440080FE430000FF43000000440080C5
:1056DA00FF43004000440000FE43000000440080F5
:1056EA00FF4300000044008001440080FB430000A7
:1056FA000344004000440080044400C001440040C8
:10570A000444000006440040074400C0074400C0A7
:10571A00074400C0074400C0064400000644004095
:10572A0005440080044400C0034400000244008091
:10573A00014400C00044004002440080F8430000D5
:10574A00FC430080FA430080F9430000F7430080DD
:10575A00F6430080F6430000F7430000F943008057
:10576A00F8430000FA430080FB430080FC430080BA
:10577A00FE430000FD430000FE4300000044000019
:10578A00FF430080FF43000000440080FE43008086
:10579A0000440080FE430000FF430080FE43008077
:1057AA00FE430000FE430000FE430000FD430000EC
:1057BA00FE430000FC430000FE430080FC430080DF
:1057CA00FC430000FE430080FD430000FD4300004F
:1057DA00FE430080FB430080FE430080FD4300003F
:1057EA00FE430080FE430000FD430000FE430080AC
:1057FA00FE430000FE430000FF430080FD4300001B
:10580A00FF430000FF430080FE430080FF43008007
:10581A000044004001440000FD4300C0024400402F
:10582A0000440080054400C001440000054400C053
:10583A000544000007440040084400C007440040F3
:10584A0007440000074400000644004005440000E5
:10585A00044400C002440000024400C00044008026
:10586A0002440000F8430080FC430000FC4300802F
:10587A00F7430080F8430000F6430080F6430080B7
:10588A00F7430000F8430000F8430080F9430000A2
:10589A00FA430080FB430080FC430000FD43008084
:1058AA00FD430000FD430080FE430000FF4300006B
:1058BA00FF430000FE430000FE430000FE430000D9
:1058CA00FE430000FD430080FD430080FC430000CE
:1058DA00FC430080FD430000FC430080FC430000C1
:1058EA00FD430080FC430000FE430000FD430080AE
:1058FA00FC430000FE430080FD430080FD4300801E
:10590A00FE430000FD43000000440000FD43000088
:10591A00FF430000FE430080FD430000FE430000F9
:10592A00FE430080FD430080FF430000FD430080EA
:10593A00FF430080FE430000FF430080FF43004016
:10594A000044004001440000FC4300C002440080BF
:10595A0000440080054400800244008004440000A2
:10596A00064400800744000009440000084400403F
:10597A0008440000074400C00644008005440000B3
:10598A000444000003440000024400000144008073
:10599A000044000001440000F7430080FB4300007C
:1059AA00F9430000F9430000F7430080F543000083
:1059BA00F7430080F6430000F8430000F843000074
:1059CA00F9430080FB430080FB430080FD43000055
:1059DA00FE430080FE43000000440080FF43008035
:1059EA00FF43000000440000FF4300400044000061
:1059FA00FF430080FE430000FE430080FE43008018
:105A0A00FE430000FE430080FD430000FE43000009
:105A1A00FE430000FE430080FD430000FC430000FB
:105A2A00FD430000FD430000FD430000FE4300006B
:105A3A00FD430000FE430080FE430080FC430080DB
:105A4A00FD430080FD430000FD430000FE430000CB
:105A5A00FD430000FD430080FC430080FC4300003E
:105A6A00FE430080FC430000FC430080FE430080AC
:105A7A00FE430000FF4300000044004000440000D1
:105A8A0002440080FB4300C003440040004400C0BD
:105A9A0005440080024400C0044400C0054400C01C
:105AAA0007440040074400400844004007440000FF
:105ABA000744000006440040054400C00344004077
:105ACA00034400800144000001440080FF430000B9
